:020000040000FA
:100000000A128A1112280134FE00030E8312031310
:10001000DF000408E0000A08E1007F08E2000A1699
:100020008A119C2E0A128A1115288317B730FD00F9
:100030001530FE00B530FF00B23084000A168A1178
:1000400079260A128A11831603130A128A110320D1
:100050000A128A11D40083136D30FD001530FE00A2
:10006000D830FF00633084000A168A1179260A12FC
:100070008A11C801C901CA01CB01CC01CD01CE0151
:10008000CF01D001D101D20183120313ED01EE01A2
:10009000EF0183010A128A15932A4D28FF000030D0
:1000A0008A007F08820753280A128A114C2E831275
:1000B000031329088039FF007F08B3002908AE0028
:1000C0002E07FF007F08B900A81F67286828692845
:1000D0003914390803196D286E287D28390A031D43
:1000E000722873287B280030A9000030A800003057
:1000F000A7000030A600A81785280030A90000300E
:10010000A8000030A7000030A6002D088039FF00AD
:100110007F08B3062D08AE002E07FF007F08B80049
:10012000AC1F932894289528381438080319992867
:100130009A28A928380A031D9E289F28A72800303E
:10014000AD000030AC000030AB000030AA00AC17AE
:10015000B1280030AD000030AC000030AB00003002
:10016000AA0038080319B528B628BB283908031D8A
:10017000BA28BB28C4280030A9000030A8000030ED
:10018000A7000030A600B72B2608FF007F08F0006C
:100190002C080A128A1501200A128A11710883128A
:1001A0000313BF007008BE003E08AE00AF01B001EF
:1001B000B1013108B7003008B6002F08B5002E088D
:1001C000B4003F08AE00AF01B001B1013108BD007D
:1001D0003008BC002F08BB002E08BA002708FF001B
:1001E0007F08F0002B080A128A1501200A128A11D2
:1001F000710883120313BF007008BE003E08AE00F2
:10020000AF01B001B1012E08B4072F080311031884
:10021000013E03190C29B507300803110318013EEC
:1002200003191329B607310803110318013E0319F6
:100230001A29B7073F08AE00AF01B001B1012E087F
:10024000BA072F0803110318013E03192829BB0719
:10025000300803110318013E03192F29BC07310888
:1002600003110318013E03193629BD072808FF00B2
:100270007F08F0002A080A128A1501200A128A1142
:10028000710883120313BF007008BE003E08AE0061
:10029000AF01B001B1012E08B4072F0803110318F4
:1002A000013E03195429B507300803110318013E14
:1002B00003195B29B607310803110318013E03191E
:1002C0006229B7073F08AE00AF01B001B1012E08A7
:1002D000BA072F0803110318013E03197029BB0741
:1002E000300803110318013E03197729BC073108B0
:1002F00003110318013E03197E29BD070830AE0023
:100300000310B40DB50DB60DB70DAE0B802927083F
:10031000FF007F08F0002A080A128A1501200A123D
:100320008A11710883120313BF007008BE003E08D3
:10033000AE003F08AF00B001B1012E08B4072F088E
:1003400003110318013E0319A629B507300803114C
:100350000318013E0319AD29B6073108031103182C
:10036000013E0319B429B7072608FF007F08F000F3
:100370002B080A128A1501200A128A1171088312A9
:100380000313BF007008BE003E08AE003F08AF0078
:10039000B001B1012E08B4072F0803110318013E64
:1003A0000319D329B507300803110318013E0319B7
:1003B000DA29B607310803110318013E0319E129B0
:1003C000B7070830AE000310B40DB50DB60DB70D6C
:1003D000AE0BE3292608FF007F08F0002A080A1266
:1003E0008A1501200A128A11710883120313BF00B3
:1003F0007008BE003E08AE003F08AF00B001B1017A
:100400002E08B4072F0803110318013E0319092A07
:10041000B507300803110318013E0319102AB60767
:10042000310803110318013E0319172AB7072708DB
:10043000FF007F08F0002C080A128A1501200A121A
:100440008A11710883120313BF007008BE003E08B2
:10045000AE003F08AF00B001B1012E08BA072F0867
:1004600003110318013E0319362ABB073008031194
:100470000318013E03193D2ABC0731080311031874
:10048000013E0319442ABD072808FF007F08F00039
:100490002B080A128A1501200A128A117108831288
:1004A0000313BF007008BE003E08AE003F08AF0057
:1004B000B001B1012E08BA072F0803110318013E3D
:1004C0000319632ABB07300803110318013E0319FF
:1004D0006A2ABC07310803110318013E0319712A67
:1004E000BD072808FF007F08F0002C080A128A15B3
:1004F00001200A128A11710883120313BF007008C9
:10050000BE003E08AE003F08AF00B001B1010830A8
:100510000310AE0DAF0DB00DB10DFF3E031D882AC7
:100520002E08BA072F0803110318013E0319992A50
:10053000BB07300803110318013E0319A02ABC07AA
:10054000310803110318013E0319A72ABD07340817
:10055000AE003508AF003608B0003708B1001830DB
:100560000310B10CB00CAF0CAE0CFF3E031DB02A53
:100570002E08BA072F0803110318013E0319C12AD8
:10058000BB07300803110318013E0319C82ABC0732
:10059000310803110318013E0319CF2ABD070830A3
:1005A000AE000310B40DB50DB60DB70DAE0BD12ACC
:1005B00039083807AE00AF01AF0D2E08823EBE00ED
:1005C0002F080318013EFF3EBF00032B0130AE0091
:1005D0000310BA0DBB0DBC0DBD0DAE0BE82AB71F45
:1005E000F22AF32AF42A3A140130AE000310B40DB3
:1005F000B50DB60DB70DAE0BF62AFF30BE070318CA
:10060000BF0AFF30BF07BC1F062B072BE62AB80125
:10061000B71F0B2B0C2B282BFF303405AE00FF30FF
:100620003505AF00FF303605B0007F303705B1002B
:10063000310830042F042E0403191F2B202B232BE9
:10064000B801B80A282B3A1C262B272B282B202B45
:10065000380803192C2B2D2B5E2B0130BA070030E4
:1006600003180130BB07003003180130BC0700300D
:1006700003180130BD073D1C3E2B3F2B5E2B3A0873
:10068000AE003B08AF003C08B0003D08B1000130AF
:10069000B200310DB10CB00CAF0CAE0CB20B492B4B
:1006A0003108BD003008BC002F08BB002E08BA007E
:1006B0000130BE070318BF0A0030BF073F08803A69
:1006C000FF0080307F02031D672BFF303E02031CBA
:1006D0006A2B6B2B762B7F3083120313BD00803087
:1006E000BC000030BB000030BA00AB2B83120313F8
:1006F0003F08803AFF0080307F02031D812B0130CC
:100700003E020318842B852B912B00308312031398
:10071000BD000030BC000030BB000030BA00B301A7
:10072000AB2B831203133E08FF007F08B900FF3094
:10073000BA05FF30BB057F30BC050030BD05391C54
:10074000A22BA32BA42BBC173908AE0003102E0C30
:10075000FF007F08BD003308FF007F08BD043D088F
:10076000A9003C08A8003B08A7003A08A60008001A
:1007700073088039FF007F08F800730883120313A1
:10078000A0002007FF007F08FA00F21FC82BC92B2A
:10079000CA2B7A147A080319CE2BCF2BDF2B7A0AB7
:1007A000031DD32BD42BDC2B0030F3000030F200E0
:1007B0000030F1000030F000F217F301E72B0030B9
:1007C000F3000030F2000030F1000030F000770854
:1007D0008039FF007F08F900790878060319F12BAA
:1007E000F22BF32B78177708A0002007FF007F0873
:1007F000F900F61FFC2BFD2BFE2B79147908031949
:10080000022C032C132C790A031D072C082C102C06
:100810000030F7000030F6000030F5000030F40042
:10082000F617F7011B2C0030F7000030F6000030FF
:10083000F5000030F4007A0879020318202C212CEE
:10084000652C781F242C252C292C8030FF007F0854
:10085000F8067A08FF007F08FB007908FF007F0890
:10086000FA007B08FF007F08F9007008FF007F088E
:10087000FB007408FF007F08F0007B08FF007F0882
:10088000F4007108FF007F08FB007508FF007F0877
:10089000F1007B08FF007F08F5007208FF007F0869
:1008A000FB007608FF007F08F2007B08FF007F084E
:1008B000F6007308FF007F08FB007708FF007F0841
:1008C000F3007B08FF007F08F700FB017908A00018
:1008D000A1012108A3007A082002A200031CA3039F
:1008E0002308803AFF0080307F02031D792C1A30E4
:1008F0002202031C7C2C7D2CBC2C73087204710416
:100900007004031D842C862C0130872C0030FF00DE
:100910007F08FB000030F3000030F2000030F100EF
:100920000030F0007908FF007F08FA00C22C7B1C21
:100930009A2C9B2CA62C7B0883120313A000031077
:10094000200C0138FF007F08FB00A82C0310FB0CD3
:10095000701CAB2CAC2CAD2CFB1701308312031395
:10096000A000730DF30CF20CF10CF00CA00BB12CE9
:100970000130FF007F08FA0779087A02031CC12CB6
:10098000C22C972C781BC52CC62C152D7A08031D5C
:10099000CA2CCB2CD42C0030F3000030F2000030F5
:1009A000F1000030F0004B2E7408F00775080311B9
:1009B0000318013E0319DD2CF10776080311031813
:1009C000013E0319E42CF207770803110318013ED6
:1009D0000319EB2CF307731CEE2CEF2CCD2D7B1C95
:1009E000F22CF32CFE2C7B0883120313A0000310BF
:1009F000200C0138FF007F08FB00002D0310FB0CCA
:100A0000701C032D042D052DFB17013083120313D9
:100A1000A000730DF30CF20CF10CF00CA00B092DDF
:100A20000130FF007F08FA07CD2D7308803AFF00E0
:100A30007708803A7F02031D272D76087202031D76
:100A4000272D75087102031D272D740870020318E5
:100A50002A2D2B2D852DFF3083120313A000FF308C
:100A6000A100FF30A200FF30A3007408A4007508A5
:100A7000A5007608A6007708A7007008A4027108F0
:100A8000031C710F442D452DA5027208031C720F23
:100A90004A2D4B2DA6027308031C730F502D512DA8
:100AA000A7022408A00725080318250F582D592D43
:100AB000A10726080318260F5E2D5F2DA207270821
:100AC0000318270AA3072308F3002208F2002108CD
:100AD000F1002008F0008030FF007F08F806FB09D5
:100AE000FB0A7B08031D752D762D932D0130F00731
:100AF000003003180130F107003003180130F2070D
:100B0000003003180130F307932D7408F0027508C4
:100B1000031C750FF1027608031C760FF2027708AA
:100B2000031C770FF3027308720471047004031D31
:100B30009A2D9B2DC92D7B08031D9F2DA02DC92DFE
:100B40000030F3000030F2000030F1000030F0001F
:100B50004B2E013083120313A0000310F00DF10D92
:100B6000F20DF30DA00BAD2DFB1FB72DB82DB92D38
:100B700070147B1CBC2DBD2DC02D0314FB0DC22D8C
:100B80000310FB0D7A080319C62DC72DC92D01309E
:100B9000FA02F21FCC2DCD2DA92DF901FB1FD12D6D
:100BA000D22DE02D7B087F390319D72DD82DDB2DD1
:100BB000F901F90AE02D701CDE2DDF2DE02DD82D76
:100BC00079080319E42DE52D1B2E0130F0070030C4
:100BD00003180130F107003003180130F20700302C
:100BE00003180130F307731CF62DF72D1B2E700828
:100BF00083120313A0007108A1007208A2007308F9
:100C0000A3000130A400230DA30CA20CA10CA00C86
:100C1000A40B032E2308F3002208F2002108F100A0
:100C20002008F0007A0A0319162E172E1B2E013009
:100C3000FF007F08FA077A0A03191F2E202E252E9F
:100C40007A08031D242E252E332E0030F3000030A9
:100C5000F2000030F1000030F0007A08031D312E60
:100C6000322E332EF8017A1C362E372E392EF217FB
:100C70003D2E7F30FF007F08F2057A0883120313B0
:100C8000A0000310200CFF007F08F300F81F492E7E
:100C90004A2E4B2EF31708008B1C4F2E502E5D2E24
:100CA0008316031354080319562E582E0130592E5B
:100CB0000030FF007F08D4008B1083160313540309
:100CC000031D632E642E722E0A168A11AB250A129A
:100CD0008A110A168A11BA250A128A118316031379
:100CE000D101D2015408031D762E772EE02F520336
:100CF000031D7B2E7C2E812E0A168A11CC270A1208
:100D00008A11831603135103031D872E882E8D2EFF
:100D10000A128A1528200A128A11831203130C1C46
:100D2000922E932EE02FEC308F0078308E00013021
:100D300083160313C8070318C90A0030C907013016
:100D4000FF007F08CE070130CC070318CD0A003022
:100D5000CD070130CA070318CB0A0030CB070A3091
:100D60004F02031CB42EB52E452F003083160317F7
:100D7000B5000030B4000030B3000030B20083167C
:100D80000313CF010A304F02031CC72EC82EC92EF1
:100D9000032F4F0883120313DE0001300310DE0D12
:100DA000FF3E031DCE2E03105E0DA03E8400831374
:100DB0000008F000840A0008F100840A0008F2002C
:100DC000840A0008F300831603173508F700340877
:100DD000F6003308F5003208F4000A128A11B8232D
:100DE0000A128A11730883160317B5007208B4003B
:100DF0007108B3007008B2000130FF007F0883164D
:100E00000313CF07C22E413083120313C3002030D7
:100E1000C2000030C1000030C0008316031735083F
:100E200083120313C70083160317340883120313B6
:100E3000C60083160317330883120313C5008316F5
:100E40000317320883120313C4000A128A152326DB
:100E50000A128A1183120313430883160317B5007D
:100E600083120313420883160317B400831203137B
:100E7000410883160317B300831203134008831637
:100E80000317B20083160313CF0114304E06031D5F
:100E90004A2F4B2F732F0A128A159D200A128A118E
:100EA000831603134F0883120313DE00013003106F
:100EB000DE0DFF3E031D572F03105E0DA03E840084
:100EC0005A0883138000840A5B088000840A5C0847
:100ED0008000840A5D0880000130FF007F088316CF
:100EE0000313CF07CE01C83048064904031D792FEC
:100EF0007A2F862F83120313871E7F2F802F822F36
:100F00008030860683160313C801C901E8304A06FB
:100F1000033003194B06031D8E2F8F2F942FD00102
:100F2000CA01CB01CC01CD015003031D982F992F8D
:100F3000C32F00304D02C83003194C020318A12FF3
:100F4000A22FA82F0A168A11AB250A128A11DD2FAB
:100F50004E080319AC2FAD2FB52F83160317360893
:100F60000A168A1125270A128A1190308316031354
:100F70004C06031DBF2F4D03031DBF2FC02FDD2FB8
:100F8000CC01CD01DD2F4E080319C72FC82FDD2F4F
:100F9000831603173508F3003408F2003308F10014
:100FA0003208F0000A128A1519220A128A117008F2
:100FB0000A168A1125270A128A11831203130C10AC
:100FC00008008316031790000A168A11FA250A12E0
:100FD0008A1183160313111BEE2FEF2FE92F8316AF
:100FE000031710088312031393008C1DF82FF92F99
:100FF000F52F8C110A168A11FA250A128A11080097
:10100200F800F401F5017008F200F3017208F6002D
:101012007308F700781C0E280F2815287608F407A5
:101022000318F50A7708F50701300310F60DF70DDE
:10103200FF3E031D16280310F80C7808031D222812
:1010420023280B287508F1007408F00008008316A5
:1010520003135003031D2E282F285A284B308316C2
:1010620003173602031C362837283C284B30FF0072
:101072007F08B60040280530FF007F08B607F03031
:10108200FF007F08F1003608FF007F08F2000230FF
:101092000A168A11E7260A128A1583160313CA0151
:1010A200CB01CC01CD010310003003180130D10077
:1010B2005D28D001D00A4E2808008316031793003A
:1010C2000A168A11CF250A128A15831603171308E6
:1010D200A03E0A168A1188260A128A158316031759
:1010E20011080A128A11E1270A128A150A168A11B0
:1010F200CF250A128A15831603171308A13E0A1276
:101102008A11E1270A128A150A168A11CC260A12B6
:101112008A15FF0083160317120884007F088317BD
:1011220080000A168A1141260A128A150A168A11A5
:1011320023260A128A1508003C3083120313C300C7
:101142002330C200D730C1000A30C0003B30A900B2
:10115200A030A8000030A7000030A6000A168A11AD
:1011620007260A128A157008FA007108FB00FC01B2
:10117200FD017D08F5007C08F4007B08F3007A0885
:10118200F20000300A128A15C0230A128A15750865
:1011920083120313AD007408AC007308AB0072082D
:1011A200AA000A128A1157200A128A1583120313FF
:1011B2002908C7002808C6002708C5002608C40059
:1011C2000A128A1523260A128A1583120313430868
:1011D200DD004208DC004108DB004008DA000800BC
:1011E200F501F31FF528F628FD28F209F309F20AA2
:1011F2000319F30AF501F50AF11F0029012906294D
:10120200F009F109F00A0319F10A700871040319CF
:101212000B290C293B29F401F40A1A290130031085
:10122200F00DF10DFF3E031D10290130FF007F0874
:10123200F407F11F1D291E290F2971087302031DCE
:10124200242970087202031C272928292E297008D4
:10125200F2027108031CF303F30201300310F10CD4
:10126200F00CFF3E031D2F290130F402031D3A2921
:101272003B291E29750803193F2940294529F209EE
:10128200F309F20A0319F30A7308F1007208F00075
:101292000800F501F11F4E294F295629F009F109DD
:1012A200F00A0319F10AF501F50AF31F59295A291F
:1012B2006329F209F309F20A0319F30A0130FF0064
:1012C2007F08F506F601F7017008710403196A290F
:1012D2006B29A229F401F40A792901300310F00DD7
:1012E200F10DFF3E031D6F290130FF007F08F40757
:1012F200F11F7C297D296E2901300310F60DF70DAF
:10130200FF3E031D7E2971087302031D8A2970089E
:101312007202031C8D298E2995297008F202710828
:10132200031CF303F302761401300310F10CF00CEA
:10133200FF3E031D96290130F402031DA129A229B3
:101342007D2975080319A629A729AC29F609F709E9
:10135200F60A0319F70A7708F1007608F000080088
:101362000030831603179C0000309B0000309A0067
:101372000030990013081204110410040319C22941
:10138200C329102A9D019D0AD32901309800031018
:10139200900D910D920D930D980BC8290130FF000D
:1013A2007F089D07931FD629D729C62901309800A7
:1013B2000310990D9A0D9B0D9C0D980BD9291308BA
:1013C2001702031DEE2912081602031DEE29110849
:1013D2001502031DEE2910081402031CF129F2293B
:1013E200012A100894021108031C110F9502120819
:1013F200031C120F96021308031C130F97021914F1
:1014020001300310930C920C910C900CFF3E031DC3
:10141200022A01309D02031D0F2A102AD7291C0817
:1014220093001B0892001A08910019089000080006
:101432000310720D730DFF007F08F9007908031D78
:10144200232A242A2D2A0030F3000030F200003033
:10145200F1000030F000922A7008F4007108F500E3
:101462007208F6007308F7001F300310F70CF60C31
:10147200F50CF40CFF3E031D362A7408FF007F08AA
:10148200F800F217FF30F005FF30F105FF30F205EA
:101492000030F3059630F902F91F502A512A6B2ABF
:1014A2007908803A973E0318572A582A592A242A3B
:1014B20001300310F30CF20CF10CF00CFF3E031D93
:1014C2005A2A0130FF007F08F907031D692A6A2A98
:1014D200592A822A20307902031C702A712A7D2A15
:1014E200242A0130F4000310F00DF10DF20DF30D7A
:1014F200F40B742A0130F9027908031D812A822A29
:10150200722A78080319862A872A922AF009F10991
:10151200F209F309F00A0319F10A0319F20A03198D
:10152200F30A08008730FF007F088316031386053D
:1015320001300A168A1163260A128A150A168A11BE
:1015420006270A128A15003083160317A1000130FC
:10155200A00086309F00A0309E000A168A119A27AA
:101562000A128A150A168A1152260A128A150A16B0
:101572008A11C0250A128A150A168A11B0250A1282
:101582008A150A168A11E2250A128A15F030FF001E
:101592007F08831603179100B630FF007F08920080
:1015A20002300A128A155E200A128A15B630FF002E
:1015B2007F0883160317AA00B2300A128A1538254B
:1015C2000A128A15831203130619E82AE92AFE2A47
:1015D200413083160317B100ED30B000B00BEF2A93
:1015E200B10BEF2AF42A831203130619F92AFA2AF5
:1015F200FE2A83160313D101D10A83128618022B05
:10160200032BD72A413083160317B100ED30B00007
:10161200B00B092BB10B092B0E2B83120313861867
:10162200132B142BD72A83160313D201D20AD72ADB
:101632000A128A1112280030831603171E05A6000B
:1016420000301F05A70080302005A8007F3021054B
:10165200A9002908280427042604031D312B322B54
:101662003A2B0030A1000030A00000309F00003073
:101672009E0000302205A60000302305A70080301E
:101682002405A8007F302505A9002908280427047D
:101692002604031D4D2B4E2B562B0030A500003087
:1016A200A4000030A3000030A200A11F592B5A2B26
:1016B2007E2B0030A6000030A7000030A80080304A
:1016C200A9001E08A6021F08031C1F0F692B6A2B04
:1016D200A7022008031C200F6F2B702BA8022108E1
:1016E200031C210F752B762BA9022908A1002808BB
:1016F200A00027089F0026089E00A51F812B822B91
:10170200A62B0030A6000030A7000030A8008030D1
:10171200A9002208A6022308031C230F912B922B57
:10172200A7022408031C240F972B982BA802250834
:10173200031C250F9D2B9E2BA9022908A500280812
:10174200A4002708A3002608A2008030A10680304A
:10175200A50625082102031DB82B24082002031D1B
:10176200B82B23081F02031DB82B22081E020318E0
:10177200BB2BBC2BBE2B0310BF2B03140800831200
:101782000313A00020080319C72BC82BDC2BF51F5D
:10179200CB2BCC2BDC2B7209A2007309A30074099A
:1017A200A4007509A500A20A0319A30A0319A40A31
:1017B2000319A50AE42B7508A5007408A400730890
:1017C200A3007208A2007508740473047204031D56
:1017D200EB2BEC2BF52B0030F5000030F400003041
:1017E200F3000030F2007B2C9630FF007F08A1004E
:1017F200072C0130FF007F08A10701300310A50C60
:10180200A40CA30CA20CFF3E031DFF2BFE302505EA
:10181200031D0C2C0D2CFA2B292C0130FF007F0804
:10182200A1070130A207003003180130A3070030DE
:1018320003180130A407003003180130A507013056
:101842000310A50CA40CA30CA20CFF3E031D212C1B
:10185200FF302505031D2E2C2F2C0E2C3B2C013086
:10186200A1020130F6000310A20DA30DA40DA50DD7
:10187200F60B342CA41B3E2C3F2C452C02302102AB
:101882000318442C452C302C2118482C492C512C5F
:10189200FF30A205FF30A3057F30A405FF30A50568
:1018A2000310A10C2108F600F701F801F901183024
:1018B2000310F60DF70DF80DF90DFF3E031D592C1F
:1018C2007608A2047708A3047808A4047908A5047A
:1018D200200803196D2C6E2C732CF51F712C722CA1
:1018E200732CA5172508F5002408F4002308F3003B
:1018F2002208F2000800831603179800180803193B
:10190200832C842C982C931F872C882C982C1009BC
:101912009A0011099B0012099C0013099D009A0A62
:1019220003199B0A03199C0A03199D0AA02C130888
:101932009D0012089C0011089B0010089A001308D1
:10194200120411041004031DA72CA82CB12C003082
:101952009300003092000030910000309000372D4B
:101962009630FF007F089900C32C0130FF007F08EA
:101972009907013003109D0C9C0C9B0C9A0CFF3EA6
:10198200031DBB2CFE301D05031DC82CC92CB62C13
:10199200E52C0130FF007F08990701309A070030DB
:1019A200031801309B070030031801309C070030F8
:1019B200031801309D07013003109D0C9C0C9B0CF9
:1019C2009A0CFF3E031DDD2CFF301D05031DEA2C82
:1019D200EB2CCA2CF72C0130990201309400031031
:1019E2009A0D9B0D9C0D9D0D940BF02C9C1BFA2CBB
:1019F200FB2C012D023019020318002D012DEC2CB5
:101A02001918042D052D0D2DFF309A05FF309B0569
:101A12007F309C05FF309D050310990C1908940036
:101A220095019601970118300310940D950D960DAE
:101A3200970DFF3E031D152D14089A0415089B04EB
:101A420016089C0417089D0418080319292D2A2D2D
:101A52002F2D931F2D2D2E2D2F2D9D171D089300F9
:101A62001C0892001B0891001A08900008008316B7
:101A72000317AF002A08840083170008AB00AC01EB
:101A8200AD01AE012E0893002D0892002C089100A2
:101A92002B08900001300A128A157C240A128A153A
:101AA200831603171308A1001208A00011089F0053
:101AB20010089E002F08840083170008A200840AE1
:101AC2000008A300840A0008A400840A0008A500F4
:101AD2000A128A151C230A128A150318712D722DF7
:101AE200AF2D831603172A08840083170008053ECA
:101AF200900000300318013091009201911B920373
:101B02001208930001300A128A157C240A128A15DF
:101B1200831603171308A1001208A00011089F00E2
:101B220010089E002F08840083170008A200840A70
:101B32000008A300840A0008A400840A0008A50083
:101B42000A128A151C230A128A150318A92DAA2D16
:101B5200AF2D8312031387120715861783160317F7
:101B62002F088400831700089E00840A00089F0043
:101B7200840A0008A000840A0008A1002A08840040
:101B82000008AB00AC01AD01AE012E0893002D0898
:101B920092002C0891002B08900001300A128A153D
:101BA2007C240A128A15831603171308A50012084B
:101BB200A4001108A3001008A2000A128A151C230F
:101BC2000A128A150318E62DE72D222E8316031713
:101BD2002F088400831700089E00840A00089F00D3
:101BE200840A0008A000840A0008A1002A088400D0
:101BF2000008053E90000030031801309100920168
:101C0200911B92031208930001300A128A157C2458
:101C12000A128A15831603171308A5001208A400D6
:101C22001108A3001008A2000A128A151C230A1226
:101C32008A1503181D2E1E2E222E831203138716B9
:101C4200071108008312031347088039FF007F0839
:101C5200D1004708C8004807FF007F08D800C61F08
:101C6200332E342E352E581458080319392E3A2E95
:101C72004A2E580A031D3E2E3F2E472E0030C70023
:101C82000030C6000030C5000030C400C617C701CE
:101C9200522E0030C7000030C6000030C5000030B0
:101CA200C40043088039FF007F08D1064308C800FA
:101CB2004807FF007F08D900C21F602E612E622EE6
:101CC200591459080319662E672E772E590A031DD7
:101CD2006B2E6C2E742E0030C3000030C200003018
:101CE200C1000030C000C217C3017F2E0030C30004
:101CF2000030C2000030C1000030C000430842047E
:101D020041044004031D862E872EA02E0030C700FA
:101D12000030C6000030C5000030C4008030C60468
:101D22007F30C7045108FF007F08C7044708C3007B
:101D32004608C2004508C1004408C000FF2F5808E9
:101D4200031DA42EA52EAE2E0030C3000030C2000B
:101D52000030C1000030C000FF2F5808C800C90180
:101D62004908CB0059084802CA00031CCB034A08A1
:101D72007F3ED2004B080318013E003ED3004708C5
:101D8200D0004608CF004508CE004408CD00003000
:101D9200C7000030C6000030C5000030C40000306B
:101DA200D7000030D6000030D5000030D400D90171
:101DB200242F59080319DE2EDF2EFF2E0130C80012
:101DC2000310CD0DCE0DCF0DD00DC80BE12E01307D
:101DD200C8000310C40DC50DC60DC70DC80BEA2EF1
:101DE200D71FF42EF52EF62E44140130C80003102E
:101DF200D40DD50DD60DD70DC80BF82E43085002C1
:101E0200031D0D2F42084F02031D0D2F41084E02E4
:101E1200031D0D2F40084D02031C102F112F202FE0
:101E220057174008CD024108031C410FCE02420859
:101E3200031C420FCF024308031C430FD0020130A0
:101E4200FF007F08D9071A305902031C292F2A2FB5
:101E5200DA2E50084F044E044D040319312F322F4D
:101E6200512F5414512F0130C8000310C40DC50D59
:101E7200C60DC70DC80B362FD71F402F412F422F3B
:101E820044140130C8000310D40DD50DD60DD70D62
:101E9200C80B442FFF30D2070318D30AFF30D307F1
:101EA200C61F542F552F342FD901D71F592F5A2F00
:101EB200762FFF305405C800FF305505C900FF30AA
:101EC2005605CA007F305705CB004B084A04490427
:101ED200480403196D2F6E2F712FD901D90A762F5D
:101EE200441C742F752F762F6E2F590803197A2FE1
:101EF2007B2FAC2F0130C407003003180130C50717
:101F0200003003180130C607003003180130C7073C
:101F1200471C8C2F8D2FAC2F4408C8004508C900E0
:101F22004608CA004708CB000130CC004B0DCB0C51
:101F3200CA0CC90CC80CCC0B972F4B08C7004A0817
:101F4200C6004908C5004808C4000130D20703187A
:101F5200D30A0030D3075308803AFF0080307F0253
:101F6200031DB52FFF305202031CB82FB92FC72F04
:101F7200FF3083120313D2000030D3000030C700B9
:101F82000030C6000030C5000030C40083120313C5
:101F92005308803AFF0080307F02031DD22F0130A8
:101FA20052020318D52FD62FE32F83120313D20127
:101FB200D3010030C7000030C6000030C500003039
:101FC200C400D101831203135208FF007F08D80016
:101FD200581CEC2FED2FEF2FC617F32F7F30FF0089
:101FE2007F08C6055808C8000310480CFF007F0888
:0E1FF200C7005108FF007F08C704972E0800A3
:102B56008312031385120512080083160313061544
:102B66008614080000340034DC3441343C348312CB
:102B760003138712071186130800831603138801AF
:102B86000512851208000A168A11ED250A168A1101
:102B960083160313111408000A168A11FA250A1659
:102BA6008A1183160313111408003F3406345B346C
:102BB6004F3466346D347D3407347F346F34831676
:102BC6000313861383120313861383160313071145
:102BD600871208008316031311081F39031DF42DED
:102BE600F52DED2D1419F82DF92DED2D0800831670
:102BF600031311081F39031D012E022EFA2D141975
:102C0600052E062EFA2D0800831203131F151F1911
:102C16000D2E0E2E0A2E1E08F100831603131E0813
:102C2600F00008000A168A11ED250A168A11831685
:102C3600031311150A168A11ED250A168A110800C2
:102C46000A168A11FA250A168A1183160313111514
:102C56000A168A11FA250A168A110800F0000A16C1
:102C66008A11ED250A168A11700883120313930040
:102C76000A168A11ED250A168A1108000A168A1103
:102C8600FA250A168A118316031391160A168A1153
:102C9600FA250A168A118316031311160800EC305A
:102CA600831203138F0078308E0090101014831651
:102CB60003130C14831203130C108B170B17080045
:102CC60083160317900083160313061401170B16B9
:102CD6008B17831603171008FF007F08831603134C
:102CE600D30008007E088A007F0882000A168A112F
:102CF60075260A168A118000840A04087D060319BF
:102D06000034FF0A0319FE0A792E83160317900072
:102D16000A168A11FA250A168A118316031710084D
:102D26008312031393000A168A11FA250A168A11CA
:102D360008008316031353080A128A114E200A1636
:102D46008A11831203136208FF0061088A00600873
:102D560084005F0E8300FE0E7E0E0900F0000A1648
:102D66008A11ED250A168A1183160313111BBC2E30
:102D7600BD2EB72E70088312031393008C1DC42E2C
:102D8600C52EC12E8C110A168A11ED250A168A1136
:102D960008000A168A11FA250A168A1183160313E1
:102DA600111BD62ED72ED12E911583128C1DDC2EFB
:102DB600DD2ED82E8C110A168A11FA250A168A11CA
:102DC6008312031313080800F3000A168A11C62596
:102DD6000A168A117308A03E0A168A1131260A16A7
:102DE6008A1171080A168A11B1260A168A11720802
:102DF6000A168A11B1260A168A110A168A1115268A
:102E06000A168A110800831603131F178312031369
:102E16001F16831603131F141F18122F162F83163F
:102E260003139F15192F831603139F119F178312E0
:102E360003131F140730831603179000900B212FDE
:102E460000000800FB000130FF007F088312031317
:102E5600EF076F03031D302F312F3E2F7B080A1615
:102E66008A116C270A168A1101300A168A11482718
:102E76000A168A11472F02300A168A1148270A169F
:102E86008A1183120313EF010800F20072086C3EE8
:102E9600840083130008633E840000088312031332
:102EA60088005B2F051285166B2F851205166B2F72
:102EB6007208F000F1017108003A0319632F6B2FB5
:102EC6007008013A0319552F033A0319582F6B2F2F
:102ED6000800FA000A30F0000030F1007A08F80025
:102EE600F9017808F2007908F3000A128A15F12030
:102EF6000A168A117008FF007F0883120313ED007B
:102F06000A30F0000030F1007A08F800F90178087C
:102F1600F2007908F3000A128A154A210A168A1164
:102F26007008FF007F0883120313EE000800831267
:102F360003139415941683160313910194018316B3
:102F4600031721089300200892001F0891001E080D
:102F56009000003097000F309600423095004030C8
:102F660094000A128A15B1210A168A1183160317CC
:102F76001008FF3E8316031393000716071AC42F83
:102F8600C82F831603138715CB2F831603138711B8
:102F96000800831603135003031DD22FD32FFC2FD3
:102FA60024308316031736020318DA2FDB2FE02F9F
:102FB6002330FF007F08B600E22F0530B602F0305E
:102FC600FF007F08F1003608FF007F08F20002309C
:102FD6000A168A11E7260A168A1183160313CA01EE
:102FE600CB01CC01CD010310003003180130D20013
:0A2FF600FF2FD001D00AF02F0800D1
:02400E00393F38
:00000001FF
